{
  "_format": "hh-sol-artifact-1",
  "contractName": "QuoteNFT",
  "sourceName": "contracts/QuoteNFT.sol",
  "abi": [
    {
      "inputs": [],
      "stateMutability": "nonpayable",
      "type": "constructor"
    },
    {
      "inputs": [
        {
          "internalType": "address",
          "name": "sender",
          "type": "address"
        },
        {
          "internalType": "uint256",
          "name": "tokenId",
          "type": "uint256"
        },
        {
          "internalType": "address",
          "name": "owner",
          "type": "address"
        }
      ],
      "name": "ERC721IncorrectOwner",
      "type": "error"
    },
    {
      "inputs": [
        {
          "internalType": "address",
          "name": "operator",
          "type": "address"
        },
        {
          "internalType": "uint256",
          "name": "tokenId",
          "type": "uint256"
        }
      ],
      "name": "ERC721InsufficientApproval",
      "type": "error"
    },
    {
      "inputs": [
        {
          "internalType": "address",
          "name": "approver",
          "type": "address"
        }
      ],
      "name": "ERC721InvalidApprover",
      "type": "error"
    },
    {
      "inputs": [
        {
          "internalType": "address",
          "name": "operator",
          "type": "address"
        }
      ],
      "name": "ERC721InvalidOperator",
      "type": "error"
    },
    {
      "inputs": [
        {
          "internalType": "address",
          "name": "owner",
          "type": "address"
        }
      ],
      "name": "ERC721InvalidOwner",
      "type": "error"
    },
    {
      "inputs": [
        {
          "internalType": "address",
          "name": "receiver",
          "type": "address"
        }
      ],
      "name": "ERC721InvalidReceiver",
      "type": "error"
    },
    {
      "inputs": [
        {
          "internalType": "address",
          "name": "sender",
          "type": "address"
        }
      ],
      "name": "ERC721InvalidSender",
      "type": "error"
    },
    {
      "inputs": [
        {
          "internalType": "uint256",
          "name": "tokenId",
          "type": "uint256"
        }
      ],
      "name": "ERC721NonexistentToken",
      "type": "error"
    },
    {
      "inputs": [
        {
          "internalType": "address",
          "name": "owner",
          "type": "address"
        }
      ],
      "name": "OwnableInvalidOwner",
      "type": "error"
    },
    {
      "inputs": [
        {
          "internalType": "address",
          "name": "account",
          "type": "address"
        }
      ],
      "name": "OwnableUnauthorizedAccount",
      "type": "error"
    },
    {
      "anonymous": false,
      "inputs": [
        {
          "indexed": true,
          "internalType": "address",
          "name": "owner",
          "type": "address"
        },
        {
          "indexed": true,
          "internalType": "address",
          "name": "approved",
          "type": "address"
        },
        {
          "indexed": true,
          "internalType": "uint256",
          "name": "tokenId",
          "type": "uint256"
        }
      ],
      "name": "Approval",
      "type": "event"
    },
    {
      "anonymous": false,
      "inputs": [
        {
          "indexed": true,
          "internalType": "address",
          "name": "owner",
          "type": "address"
        },
        {
          "indexed": true,
          "internalType": "address",
          "name": "operator",
          "type": "address"
        },
        {
          "indexed": false,
          "internalType": "bool",
          "name": "approved",
          "type": "bool"
        }
      ],
      "name": "ApprovalForAll",
      "type": "event"
    },
    {
      "anonymous": false,
      "inputs": [
        {
          "indexed": false,
          "internalType": "uint256",
          "name": "_fromTokenId",
          "type": "uint256"
        },
        {
          "indexed": false,
          "internalType": "uint256",
          "name": "_toTokenId",
          "type": "uint256"
        }
      ],
      "name": "BatchMetadataUpdate",
      "type": "event"
    },
    {
      "anonymous": false,
      "inputs": [
        {
          "indexed": false,
          "internalType": "uint256",
          "name": "_tokenId",
          "type": "uint256"
        }
      ],
      "name": "MetadataUpdate",
      "type": "event"
    },
    {
      "anonymous": false,
      "inputs": [
        {
          "indexed": true,
          "internalType": "address",
          "name": "previousOwner",
          "type": "address"
        },
        {
          "indexed": true,
          "internalType": "address",
          "name": "newOwner",
          "type": "address"
        }
      ],
      "name": "OwnershipTransferred",
      "type": "event"
    },
    {
      "anonymous": false,
      "inputs": [
        {
          "indexed": true,
          "internalType": "address",
          "name": "minter",
          "type": "address"
        },
        {
          "indexed": true,
          "internalType": "uint256",
          "name": "tokenId",
          "type": "uint256"
        },
        {
          "indexed": false,
          "internalType": "string",
          "name": "tokenURI",
          "type": "string"
        }
      ],
      "name": "QuoteMinted",
      "type": "event"
    },
    {
      "anonymous": false,
      "inputs": [
        {
          "indexed": true,
          "internalType": "address",
          "name": "from",
          "type": "address"
        },
        {
          "indexed": true,
          "internalType": "address",
          "name": "to",
          "type": "address"
        },
        {
          "indexed": true,
          "internalType": "uint256",
          "name": "tokenId",
          "type": "uint256"
        }
      ],
      "name": "Transfer",
      "type": "event"
    },
    {
      "inputs": [],
      "name": "MINT_FEE",
      "outputs": [
        {
          "internalType": "uint256",
          "name": "",
          "type": "uint256"
        }
      ],
      "stateMutability": "view",
      "type": "function"
    },
    {
      "inputs": [
        {
          "internalType": "address",
          "name": "to",
          "type": "address"
        },
        {
          "internalType": "uint256",
          "name": "tokenId",
          "type": "uint256"
        }
      ],
      "name": "approve",
      "outputs": [],
      "stateMutability": "nonpayable",
      "type": "function"
    },
    {
      "inputs": [
        {
          "internalType": "address",
          "name": "owner",
          "type": "address"
        }
      ],
      "name": "balanceOf",
      "outputs": [
        {
          "internalType": "uint256",
          "name": "",
          "type": "uint256"
        }
      ],
      "stateMutability": "view",
      "type": "function"
    },
    {
      "inputs": [
        {
          "internalType": "uint256",
          "name": "tokenId",
          "type": "uint256"
        }
      ],
      "name": "getApproved",
      "outputs": [
        {
          "internalType": "address",
          "name": "",
          "type": "address"
        }
      ],
      "stateMutability": "view",
      "type": "function"
    },
    {
      "inputs": [
        {
          "internalType": "address",
          "name": "owner",
          "type": "address"
        },
        {
          "internalType": "address",
          "name": "operator",
          "type": "address"
        }
      ],
      "name": "isApprovedForAll",
      "outputs": [
        {
          "internalType": "bool",
          "name": "",
          "type": "bool"
        }
      ],
      "stateMutability": "view",
      "type": "function"
    },
    {
      "inputs": [],
      "name": "name",
      "outputs": [
        {
          "internalType": "string",
          "name": "",
          "type": "string"
        }
      ],
      "stateMutability": "view",
      "type": "function"
    },
    {
      "inputs": [],
      "name": "owner",
      "outputs": [
        {
          "internalType": "address",
          "name": "",
          "type": "address"
        }
      ],
      "stateMutability": "view",
      "type": "function"
    },
    {
      "inputs": [
        {
          "internalType": "uint256",
          "name": "tokenId",
          "type": "uint256"
        }
      ],
      "name": "ownerOf",
      "outputs": [
        {
          "internalType": "address",
          "name": "",
          "type": "address"
        }
      ],
      "stateMutability": "view",
      "type": "function"
    },
    {
      "inputs": [],
      "name": "renounceOwnership",
      "outputs": [],
      "stateMutability": "nonpayable",
      "type": "function"
    },
    {
      "inputs": [
        {
          "internalType": "address",
          "name": "to",
          "type": "address"
        },
        {
          "internalType": "string",
          "name": "uri",
          "type": "string"
        }
      ],
      "name": "safeMint",
      "outputs": [],
      "stateMutability": "payable",
      "type": "function"
    },
    {
      "inputs": [
        {
          "internalType": "address",
          "name": "from",
          "type": "address"
        },
        {
          "internalType": "address",
          "name": "to",
          "type": "address"
        },
        {
          "internalType": "uint256",
          "name": "tokenId",
          "type": "uint256"
        }
      ],
      "name": "safeTransferFrom",
      "outputs": [],
      "stateMutability": "nonpayable",
      "type": "function"
    },
    {
      "inputs": [
        {
          "internalType": "address",
          "name": "from",
          "type": "address"
        },
        {
          "internalType": "address",
          "name": "to",
          "type": "address"
        },
        {
          "internalType": "uint256",
          "name": "tokenId",
          "type": "uint256"
        },
        {
          "internalType": "bytes",
          "name": "data",
          "type": "bytes"
        }
      ],
      "name": "safeTransferFrom",
      "outputs": [],
      "stateMutability": "nonpayable",
      "type": "function"
    },
    {
      "inputs": [
        {
          "internalType": "address",
          "name": "operator",
          "type": "address"
        },
        {
          "internalType": "bool",
          "name": "approved",
          "type": "bool"
        }
      ],
      "name": "setApprovalForAll",
      "outputs": [],
      "stateMutability": "nonpayable",
      "type": "function"
    },
    {
      "inputs": [
        {
          "internalType": "bytes4",
          "name": "interfaceId",
          "type": "bytes4"
        }
      ],
      "name": "supportsInterface",
      "outputs": [
        {
          "internalType": "bool",
          "name": "",
          "type": "bool"
        }
      ],
      "stateMutability": "view",
      "type": "function"
    },
    {
      "inputs": [],
      "name": "symbol",
      "outputs": [
        {
          "internalType": "string",
          "name": "",
          "type": "string"
        }
      ],
      "stateMutability": "view",
      "type": "function"
    },
    {
      "inputs": [
        {
          "internalType": "uint256",
          "name": "tokenId",
          "type": "uint256"
        }
      ],
      "name": "tokenURI",
      "outputs": [
        {
          "internalType": "string",
          "name": "",
          "type": "string"
        }
      ],
      "stateMutability": "view",
      "type": "function"
    },
    {
      "inputs": [
        {
          "internalType": "address",
          "name": "from",
          "type": "address"
        },
        {
          "internalType": "address",
          "name": "to",
          "type": "address"
        },
        {
          "internalType": "uint256",
          "name": "tokenId",
          "type": "uint256"
        }
      ],
      "name": "transferFrom",
      "outputs": [],
      "stateMutability": "nonpayable",
      "type": "function"
    },
    {
      "inputs": [
        {
          "internalType": "address",
          "name": "newOwner",
          "type": "address"
        }
      ],
      "name": "transferOwnership",
      "outputs": [],
      "stateMutability": "nonpayable",
      "type": "function"
    },
    {
      "inputs": [],
      "name": "withdraw",
      "outputs": [],
      "stateMutability": "nonpayable",
      "type": "function"
    }
  ],
  "bytecode": "0x608060405260016008553480156200001657600080fd5b50336040518060400160405280600881526020017f51756f74654e46540000000000000000000000000000000000000000000000008152506040518060400160405280600581526020017f51554f5445000000000000000000000000000000000000000000000000000000815250816000908162000095919062000477565b508060019081620000a7919062000477565b505050600073ffffffffffffffffffffffffffffffffffffffff168173ffffffffffffffffffffffffffffffffffffffff16036200011f5760006040517f1e4fbdf7000000000000000000000000000000000000000000000000000000008152600401620001169190620005a3565b60405180910390fd5b62000130816200013760201b60201c565b50620005c0565b6000600760009054906101000a900473ffffffffffffffffffffffffffffffffffffffff16905081600760006101000a81548173ffffffffffffffffffffffffffffffffffffffff021916908373ffffffffffffffffffffffffffffffffffffffff1602179055508173ffffffffffffffffffffffffffffffffffffffff168173ffffffffffffffffffffffffffffffffffffffff167f8be0079c531659141344cd1fd0a4f28419497f9722a3daafe3b4186f6b6457e060405160405180910390a35050565b600081519050919050565b7f4e487b7100000000000000000000000000000000000000000000000000000000600052604160045260246000fd5b7f4e487b7100000000000000000000000000000000000000000000000000000000600052602260045260246000fd5b600060028204905060018216806200027f57607f821691505b60208210810362000295576200029462000237565b5b50919050565b60008190508160005260206000209050919050565b60006020601f8301049050919050565b600082821b905092915050565b600060088302620002ff7fffffffffffffffffffffffffffffffffffffffffffffffffffffffffffffffff82620002c0565b6200030b8683620002c0565b95508019841693508086168417925050509392505050565b6000819050919050565b6000819050919050565b600062000358620003526200034c8462000323565b6200032d565b62000323565b9050919050565b6000819050919050565b620003748362000337565b6200038c62000383826200035f565b848454620002cd565b825550505050565b600090565b620003a362000394565b620003b081848462000369565b505050565b5b81811015620003d857620003cc60008262000399565b600181019050620003b6565b5050565b601f8211156200042757620003f1816200029b565b620003fc84620002b0565b810160208510156200040c578190505b620004246200041b85620002b0565b830182620003b5565b50505b505050565b600082821c905092915050565b60006200044c600019846008026200042c565b1980831691505092915050565b600062000467838362000439565b9150826002028217905092915050565b6200048282620001fd565b67ffffffffffffffff8111156200049e576200049d62000208565b5b620004aa825462000266565b620004b7828285620003dc565b600060209050601f831160018114620004ef5760008415620004da578287015190505b620004e6858262000459565b86555062000556565b601f198416620004ff866200029b565b60005b82811015620005295784890151825560018201915060208501945060208101905062000502565b8683101562000549578489015162000545601f89168262000439565b8355505b6001600288020188555050505b505050505050565b600073ffffffffffffffffffffffffffffffffffffffff82169050919050565b60006200058b826200055e565b9050919050565b6200059d816200057e565b82525050565b6000602082019050620005ba600083018462000592565b92915050565b612a1880620005d06000396000f3fe6080604052600436106101145760003560e01c8063715018a6116100a0578063c87b56dd11610064578063c87b56dd14610389578063d204c45e146103c6578063d7bf81a3146103e2578063e985e9c51461040d578063f2fde38b1461044a57610114565b8063715018a6146102ca5780638da5cb5b146102e157806395d89b411461030c578063a22cb46514610337578063b88d4fde1461036057610114565b806323b872dd116100e757806323b872dd146101e75780633ccfd60b1461021057806342842e0e146102275780636352211e1461025057806370a082311461028d57610114565b806301ffc9a71461011957806306fdde0314610156578063081812fc14610181578063095ea7b3146101be575b600080fd5b34801561012557600080fd5b50610140600480360381019061013b9190611d52565b610473565b60405161014d9190611d9a565b60405180910390f35b34801561016257600080fd5b5061016b610485565b6040516101789190611e45565b60405180910390f35b34801561018d57600080fd5b506101a860048036038101906101a39190611e9d565b610517565b6040516101b59190611f0b565b60405180910390f35b3480156101ca57600080fd5b506101e560048036038101906101e09190611f52565b610533565b005b3480156101f357600080fd5b5061020e60048036038101906102099190611f92565b610549565b005b34801561021c57600080fd5b5061022561064b565b005b34801561023357600080fd5b5061024e60048036038101906102499190611f92565b610709565b005b34801561025c57600080fd5b5061027760048036038101906102729190611e9d565b610729565b6040516102849190611f0b565b60405180910390f35b34801561029957600080fd5b506102b460048036038101906102af9190611fe5565b61073b565b6040516102c19190612021565b60405180910390f35b3480156102d657600080fd5b506102df6107f5565b005b3480156102ed57600080fd5b506102f6610809565b6040516103039190611f0b565b60405180910390f35b34801561031857600080fd5b50610321610833565b60405161032e9190611e45565b60405180910390f35b34801561034357600080fd5b5061035e60048036038101906103599190612068565b6108c5565b005b34801561036c57600080fd5b50610387600480360381019061038291906121dd565b6108db565b005b34801561039557600080fd5b506103b060048036038101906103ab9190611e9d565b610900565b6040516103bd9190611e45565b60405180910390f35b6103e060048036038101906103db9190612301565b610912565b005b3480156103ee57600080fd5b506103f76109dd565b6040516104049190612021565b60405180910390f35b34801561041957600080fd5b50610434600480360381019061042f919061235d565b6109e7565b6040516104419190611d9a565b60405180910390f35b34801561045657600080fd5b50610471600480360381019061046c9190611fe5565b610a7b565b005b600061047e82610b01565b9050919050565b606060008054610494906123cc565b80601f01602080910402602001604051908101604052809291908181526020018280546104c0906123cc565b801561050d5780601f106104e25761010080835404028352916020019161050d565b820191906000526020600020905b8154815290600101906020018083116104f057829003601f168201915b5050505050905090565b600061052282610b62565b5061052c82610bea565b9050919050565b6105458282610540610c27565b610c2f565b5050565b600073ffffffffffffffffffffffffffffffffffffffff168273ffffffffffffffffffffffffffffffffffffffff16036105bb5760006040517f64a0ae920000000000000000000000000000000000000000000000000000000081526004016105b29190611f0b565b60405180910390fd5b60006105cf83836105ca610c27565b610c41565b90508373ffffffffffffffffffffffffffffffffffffffff168173ffffffffffffffffffffffffffffffffffffffff1614610645578382826040517f64283d7b00000000000000000000000000000000000000000000000000000000815260040161063c939291906123fd565b60405180910390fd5b50505050565b610653610e5b565b600061065d610809565b73ffffffffffffffffffffffffffffffffffffffff164760405161068090612465565b60006040518083038185875af1925050503d80600081146106bd576040519150601f19603f3d011682016040523d82523d6000602084013e6106c2565b606091505b5050905080610706576040517f08c379a00000000000000000000000000000000000000000000000000000000081526004016106fd906124c6565b60405180910390fd5b50565b610724838383604051806020016040528060008152506108db565b505050565b600061073482610b62565b9050919050565b60008073ffffffffffffffffffffffffffffffffffffffff168273ffffffffffffffffffffffffffffffffffffffff16036107ae5760006040517f89c62b640000000000000000000000000000000000000000000000000000000081526004016107a59190611f0b565b60405180910390fd5b600360008373ffffffffffffffffffffffffffffffffffffffff1673ffffffffffffffffffffffffffffffffffffffff168152602001908152602001600020549050919050565b6107fd610e5b565b6108076000610ee2565b565b6000600760009054906101000a900473ffffffffffffffffffffffffffffffffffffffff16905090565b606060018054610842906123cc565b80601f016020809104026020016040519081016040528092919081815260200182805461086e906123cc565b80156108bb5780601f10610890576101008083540402835291602001916108bb565b820191906000526020600020905b81548152906001019060200180831161089e57829003601f168201915b5050505050905090565b6108d76108d0610c27565b8383610fa8565b5050565b6108e6848484610549565b6108fa6108f1610c27565b85858585611117565b50505050565b606061090b826112c8565b9050919050565b6509184e72a000341461095a576040517f08c379a000000000000000000000000000000000000000000000000000000000815260040161095190612532565b60405180910390fd5b60006008600081548092919061096f90612581565b91905055905061097f83826113db565b61098981836113f9565b808373ffffffffffffffffffffffffffffffffffffffff167f124dd1dfd71032f32deedb2bad931e6912abceed8630ddb3d638aa82ca15eb02846040516109d09190611e45565b60405180910390a3505050565b6509184e72a00081565b6000600560008473ffffffffffffffffffffffffffffffffffffffff1673ffffffffffffffffffffffffffffffffffffffff16815260200190815260200160002060008373ffffffffffffffffffffffffffffffffffffffff1673ffffffffffffffffffffffffffffffffffffffff16815260200190815260200160002060009054906101000a900460ff16905092915050565b610a83610e5b565b600073ffffffffffffffffffffffffffffffffffffffff168173ffffffffffffffffffffffffffffffffffffffff1603610af55760006040517f1e4fbdf7000000000000000000000000000000000000000000000000000000008152600401610aec9190611f0b565b60405180910390fd5b610afe81610ee2565b50565b6000634906490660e01b7bffffffffffffffffffffffffffffffffffffffffffffffffffffffff1916827bffffffffffffffffffffffffffffffffffffffffffffffffffffffff19161480610b5b5750610b5a82611455565b5b9050919050565b600080610b6e83611537565b9050600073ffffffffffffffffffffffffffffffffffffffff168173ffffffffffffffffffffffffffffffffffffffff1603610be157826040517f7e273289000000000000000000000000000000000000000000000000000000008152600401610bd89190612021565b60405180910390fd5b80915050919050565b60006004600083815260200190815260200160002060009054906101000a900473ffffffffffffffffffffffffffffffffffffffff169050919050565b600033905090565b610c3c8383836001611574565b505050565b600080610c4d84611537565b9050600073ffffffffffffffffffffffffffffffffffffffff168373ffffffffffffffffffffffffffffffffffffffff1614610c8f57610c8e818486611739565b5b600073ffffffffffffffffffffffffffffffffffffffff168173ffffffffffffffffffffffffffffffffffffffff1614610d2057610cd1600085600080611574565b6001600360008373ffffffffffffffffffffffffffffffffffffffff1673ffffffffffffffffffffffffffffffffffffffff168152602001908152602001600020600082825403925050819055505b600073ffffffffffffffffffffffffffffffffffffffff168573ffffffffffffffffffffffffffffffffffffffff1614610da3576001600360008773ffffffffffffffffffffffffffffffffffffffff1673ffffffffffffffffffffffffffffffffffffffff168152602001908152602001600020600082825401925050819055505b846002600086815260200190815260200160002060006101000a81548173ffffffffffffffffffffffffffffffffffffffff021916908373ffffffffffffffffffffffffffffffffffffffff160217905550838573ffffffffffffffffffffffffffffffffffffffff168273ffffffffffffffffffffffffffffffffffffffff167fddf252ad1be2c89b69c2b068fc378daa952ba7f163c4a11628f55a4df523b3ef60405160405180910390a4809150509392505050565b610e63610c27565b73ffffffffffffffffffffffffffffffffffffffff16610e81610809565b73ffffffffffffffffffffffffffffffffffffffff1614610ee057610ea4610c27565b6040517f118cdaa7000000000000000000000000000000000000000000000000000000008152600401610ed79190611f0b565b60405180910390fd5b565b6000600760009054906101000a900473ffffffffffffffffffffffffffffffffffffffff16905081600760006101000a81548173ffffffffffffffffffffffffffffffffffffffff021916908373ffffffffffffffffffffffffffffffffffffffff1602179055508173ffffffffffffffffffffffffffffffffffffffff168173ffffffffffffffffffffffffffffffffffffffff167f8be0079c531659141344cd1fd0a4f28419497f9722a3daafe3b4186f6b6457e060405160405180910390a35050565b600073ffffffffffffffffffffffffffffffffffffffff168273ffffffffffffffffffffffffffffffffffffffff160361101957816040517f5b08ba180000000000000000000000000000000000000000000000000000000081526004016110109190611f0b565b60405180910390fd5b80600560008573ffffffffffffffffffffffffffffffffffffffff1673ffffffffffffffffffffffffffffffffffffffff16815260200190815260200160002060008473ffffffffffffffffffffffffffffffffffffffff1673ffffffffffffffffffffffffffffffffffffffff16815260200190815260200160002060006101000a81548160ff0219169083151502179055508173ffffffffffffffffffffffffffffffffffffffff168373ffffffffffffffffffffffffffffffffffffffff167f17307eab39ab6107e8899845ad3d59bd9653f200f220920489ca2b5937696c318360405161110a9190611d9a565b60405180910390a3505050565b60008373ffffffffffffffffffffffffffffffffffffffff163b11156112c1578273ffffffffffffffffffffffffffffffffffffffff1663150b7a02868685856040518563ffffffff1660e01b8152600401611176949392919061261e565b6020604051808303816000875af19250505080156111b257506040513d601f19601f820116820180604052508101906111af919061267f565b60015b611236573d80600081146111e2576040519150601f19603f3d011682016040523d82523d6000602084013e6111e7565b606091505b50600081510361122e57836040517f64a0ae920000000000000000000000000000000000000000000000000000000081526004016112259190611f0b565b60405180910390fd5b805160208201fd5b63150b7a0260e01b7bffffffffffffffffffffffffffffffffffffffffffffffffffffffff1916817bffffffffffffffffffffffffffffffffffffffffffffffffffffffff1916146112bf57836040517f64a0ae920000000000000000000000000000000000000000000000000000000081526004016112b69190611f0b565b60405180910390fd5b505b5050505050565b60606112d382610b62565b5060006006600084815260200190815260200160002080546112f4906123cc565b80601f0160208091040260200160405190810160405280929190818152602001828054611320906123cc565b801561136d5780601f106113425761010080835404028352916020019161136d565b820191906000526020600020905b81548152906001019060200180831161135057829003601f168201915b50505050509050600061137e6117fd565b905060008151036113935781925050506113d6565b6000825111156113c85780826040516020016113b09291906126e8565b604051602081830303815290604052925050506113d6565b6113d184611814565b925050505b919050565b6113f582826040518060200160405280600081525061187d565b5050565b8060066000848152602001908152602001600020908161141991906128b8565b507ff8e1a15aba9398e019f0b49df1a4fde98ee17ae345cb5f6b5e2c27f5033e8ce7826040516114499190612021565b60405180910390a15050565b60007f80ac58cd000000000000000000000000000000000000000000000000000000007bffffffffffffffffffffffffffffffffffffffffffffffffffffffff1916827bffffffffffffffffffffffffffffffffffffffffffffffffffffffff1916148061152057507f5b5e139f000000000000000000000000000000000000000000000000000000007bffffffffffffffffffffffffffffffffffffffffffffffffffffffff1916827bffffffffffffffffffffffffffffffffffffffffffffffffffffffff1916145b80611530575061152f826118a1565b5b9050919050565b60006002600083815260200190815260200160002060009054906101000a900473ffffffffffffffffffffffffffffffffffffffff169050919050565b80806115ad5750600073ffffffffffffffffffffffffffffffffffffffff168273ffffffffffffffffffffffffffffffffffffffff1614155b156116e15760006115bd84610b62565b9050600073ffffffffffffffffffffffffffffffffffffffff168373ffffffffffffffffffffffffffffffffffffffff161415801561162857508273ffffffffffffffffffffffffffffffffffffffff168173ffffffffffffffffffffffffffffffffffffffff1614155b801561163b575061163981846109e7565b155b1561167d57826040517fa9fbf51f0000000000000000000000000000000000000000000000000000000081526004016116749190611f0b565b60405180910390fd5b81156116df57838573ffffffffffffffffffffffffffffffffffffffff168273ffffffffffffffffffffffffffffffffffffffff167f8c5be1e5ebec7d5bd14f71427d1e84f3dd0314c0f7b2291e5b200ac8c7c3b92560405160405180910390a45b505b836004600085815260200190815260200160002060006101000a81548173ffffffffffffffffffffffffffffffffffffffff021916908373ffffffffffffffffffffffffffffffffffffffff16021790555050505050565b61174483838361190b565b6117f857600073ffffffffffffffffffffffffffffffffffffffff168373ffffffffffffffffffffffffffffffffffffffff16036117b957806040517f7e2732890000000000000000000000000000000000000000000000000000000081526004016117b09190612021565b60405180910390fd5b81816040517f177e802f0000000000000000000000000000000000000000000000000000000081526004016117ef92919061298a565b60405180910390fd5b505050565b606060405180602001604052806000815250905090565b606061181f82610b62565b50600061182a6117fd565b9050600081511161184a5760405180602001604052806000815250611875565b80611854846119cc565b6040516020016118659291906126e8565b6040516020818303038152906040525b915050919050565b6118878383611a9a565b61189c611892610c27565b6000858585611117565b505050565b60007f01ffc9a7000000000000000000000000000000000000000000000000000000007bffffffffffffffffffffffffffffffffffffffffffffffffffffffff1916827bffffffffffffffffffffffffffffffffffffffffffffffffffffffff1916149050919050565b60008073ffffffffffffffffffffffffffffffffffffffff168373ffffffffffffffffffffffffffffffffffffffff16141580156119c357508273ffffffffffffffffffffffffffffffffffffffff168473ffffffffffffffffffffffffffffffffffffffff161480611984575061198384846109e7565b5b806119c257508273ffffffffffffffffffffffffffffffffffffffff166119aa83610bea565b73ffffffffffffffffffffffffffffffffffffffff16145b5b90509392505050565b6060600060016119db84611b93565b01905060008167ffffffffffffffff8111156119fa576119f96120b2565b5b6040519080825280601f01601f191660200182016040528015611a2c5781602001600182028036833780820191505090505b509050600082602083010190505b600115611a8f578080600190039150507f3031323334353637383961626364656600000000000000000000000000000000600a86061a8153600a8581611a8357611a826129b3565b5b04945060008503611a3a575b819350505050919050565b600073ffffffffffffffffffffffffffffffffffffffff168273ffffffffffffffffffffffffffffffffffffffff1603611b0c5760006040517f64a0ae92000000000000000000000000000000000000000000000000000000008152600401611b039190611f0b565b60405180910390fd5b6000611b1a83836000610c41565b9050600073ffffffffffffffffffffffffffffffffffffffff168173ffffffffffffffffffffffffffffffffffffffff1614611b8e5760006040517f73c6ac6e000000000000000000000000000000000000000000000000000000008152600401611b859190611f0b565b60405180910390fd5b505050565b600080600090507a184f03e93ff9f4daa797ed6e38ed64bf6a1f0100000000000000008310611bf1577a184f03e93ff9f4daa797ed6e38ed64bf6a1f0100000000000000008381611be757611be66129b3565b5b0492506040810190505b6d04ee2d6d415b85acef81000000008310611c2e576d04ee2d6d415b85acef81000000008381611c2457611c236129b3565b5b0492506020810190505b662386f26fc100008310611c5d57662386f26fc100008381611c5357611c526129b3565b5b0492506010810190505b6305f5e1008310611c86576305f5e1008381611c7c57611c7b6129b3565b5b0492506008810190505b6127108310611cab576127108381611ca157611ca06129b3565b5b0492506004810190505b60648310611cce5760648381611cc457611cc36129b3565b5b0492506002810190505b600a8310611cdd576001810190505b80915050919050565b6000604051905090565b600080fd5b600080fd5b60007fffffffff0000000000000000000000000000000000000000000000000000000082169050919050565b611d2f81611cfa565b8114611d3a57600080fd5b50565b600081359050611d4c81611d26565b92915050565b600060208284031215611d6857611d67611cf0565b5b6000611d7684828501611d3d565b91505092915050565b60008115159050919050565b611d9481611d7f565b82525050565b6000602082019050611daf6000830184611d8b565b92915050565b600081519050919050565b600082825260208201905092915050565b60005b83811015611def578082015181840152602081019050611dd4565b60008484015250505050565b6000601f19601f8301169050919050565b6000611e1782611db5565b611e218185611dc0565b9350611e31818560208601611dd1565b611e3a81611dfb565b840191505092915050565b60006020820190508181036000830152611e5f8184611e0c565b905092915050565b6000819050919050565b611e7a81611e67565b8114611e8557600080fd5b50565b600081359050611e9781611e71565b92915050565b600060208284031215611eb357611eb2611cf0565b5b6000611ec184828501611e88565b91505092915050565b600073ffffffffffffffffffffffffffffffffffffffff82169050919050565b6000611ef582611eca565b9050919050565b611f0581611eea565b82525050565b6000602082019050611f206000830184611efc565b92915050565b611f2f81611eea565b8114611f3a57600080fd5b50565b600081359050611f4c81611f26565b92915050565b60008060408385031215611f6957611f68611cf0565b5b6000611f7785828601611f3d565b9250506020611f8885828601611e88565b9150509250929050565b600080600060608486031215611fab57611faa611cf0565b5b6000611fb986828701611f3d565b9350506020611fca86828701611f3d565b9250506040611fdb86828701611e88565b9150509250925092565b600060208284031215611ffb57611ffa611cf0565b5b600061200984828501611f3d565b91505092915050565b61201b81611e67565b82525050565b60006020820190506120366000830184612012565b92915050565b61204581611d7f565b811461205057600080fd5b50565b6000813590506120628161203c565b92915050565b6000806040838503121561207f5761207e611cf0565b5b600061208d85828601611f3d565b925050602061209e85828601612053565b9150509250929050565b600080fd5b600080fd5b7f4e487b7100000000000000000000000000000000000000000000000000000000600052604160045260246000fd5b6120ea82611dfb565b810181811067ffffffffffffffff82111715612109576121086120b2565b5b80604052505050565b600061211c611ce6565b905061212882826120e1565b919050565b600067ffffffffffffffff821115612148576121476120b2565b5b61215182611dfb565b9050602081019050919050565b82818337600083830152505050565b600061218061217b8461212d565b612112565b90508281526020810184848401111561219c5761219b6120ad565b5b6121a784828561215e565b509392505050565b600082601f8301126121c4576121c36120a8565b5b81356121d484826020860161216d565b91505092915050565b600080600080608085870312156121f7576121f6611cf0565b5b600061220587828801611f3d565b945050602061221687828801611f3d565b935050604061222787828801611e88565b925050606085013567ffffffffffffffff81111561224857612247611cf5565b5b612254878288016121af565b91505092959194509250565b600067ffffffffffffffff82111561227b5761227a6120b2565b5b61228482611dfb565b9050602081019050919050565b60006122a461229f84612260565b612112565b9050828152602081018484840111156122c0576122bf6120ad565b5b6122cb84828561215e565b509392505050565b600082601f8301126122e8576122e76120a8565b5b81356122f8848260208601612291565b91505092915050565b6000806040838503121561231857612317611cf0565b5b600061232685828601611f3d565b925050602083013567ffffffffffffffff81111561234757612346611cf5565b5b612353858286016122d3565b9150509250929050565b6000806040838503121561237457612373611cf0565b5b600061238285828601611f3d565b925050602061239385828601611f3d565b9150509250929050565b7f4e487b7100000000000000000000000000000000000000000000000000000000600052602260045260246000fd5b600060028204905060018216806123e457607f821691505b6020821081036123f7576123f661239d565b5b50919050565b60006060820190506124126000830186611efc565b61241f6020830185612012565b61242c6040830184611efc565b949350505050565b600081905092915050565b50565b600061244f600083612434565b915061245a8261243f565b600082019050919050565b600061247082612442565b9150819050919050565b7f51756f74654e46543a207769746864726177206661696c656400000000000000600082015250565b60006124b0601983611dc0565b91506124bb8261247a565b602082019050919050565b600060208201905081810360008301526124df816124a3565b9050919050565b7f51756f74654e46543a20696e76616c6964206d696e7420666565000000000000600082015250565b600061251c601a83611dc0565b9150612527826124e6565b602082019050919050565b6000602082019050818103600083015261254b8161250f565b9050919050565b7f4e487b7100000000000000000000000000000000000000000000000000000000600052601160045260246000fd5b600061258c82611e67565b91507fffffffffffffffffffffffffffffffffffffffffffffffffffffffffffffffff82036125be576125bd612552565b5b600182019050919050565b600081519050919050565b600082825260208201905092915050565b60006125f0826125c9565b6125fa81856125d4565b935061260a818560208601611dd1565b61261381611dfb565b840191505092915050565b60006080820190506126336000830187611efc565b6126406020830186611efc565b61264d6040830185612012565b818103606083015261265f81846125e5565b905095945050505050565b60008151905061267981611d26565b92915050565b60006020828403121561269557612694611cf0565b5b60006126a38482850161266a565b91505092915050565b600081905092915050565b60006126c282611db5565b6126cc81856126ac565b93506126dc818560208601611dd1565b80840191505092915050565b60006126f482856126b7565b915061270082846126b7565b91508190509392505050565b60008190508160005260206000209050919050565b60006020601f8301049050919050565b600082821b905092915050565b60006008830261276e7fffffffffffffffffffffffffffffffffffffffffffffffffffffffffffffffff82612731565b6127788683612731565b95508019841693508086168417925050509392505050565b6000819050919050565b60006127b56127b06127ab84611e67565b612790565b611e67565b9050919050565b6000819050919050565b6127cf8361279a565b6127e36127db826127bc565b84845461273e565b825550505050565b600090565b6127f86127eb565b6128038184846127c6565b505050565b5b818110156128275761281c6000826127f0565b600181019050612809565b5050565b601f82111561286c5761283d8161270c565b61284684612721565b81016020851015612855578190505b61286961286185612721565b830182612808565b50505b505050565b600082821c905092915050565b600061288f60001984600802612871565b1980831691505092915050565b60006128a8838361287e565b9150826002028217905092915050565b6128c182611db5565b67ffffffffffffffff8111156128da576128d96120b2565b5b6128e482546123cc565b6128ef82828561282b565b600060209050601f8311600181146129225760008415612910578287015190505b61291a858261289c565b865550612982565b601f1984166129308661270c565b60005b8281101561295857848901518255600182019150602085019450602081019050612933565b868310156129755784890151612971601f89168261287e565b8355505b6001600288020188555050505b505050505050565b600060408201905061299f6000830185611efc565b6129ac6020830184612012565b9392505050565b7f4e487b7100000000000000000000000000000000000000000000000000000000600052601260045260246000fdfea2646970667358221220783695713a7cf3f2f6e5d2841b7b0c13d1d4e40d7c595b11d31704b8871aa9c164736f6c63430008140033",
  "linkReferences": {},
  "deployedLinkReferences": {}
}